{
  "contractName": "Escrow",
  "abi": [
    {
      "inputs": [
        {
          "internalType": "address",
          "name": "_payer",
          "type": "address"
        },
        {
          "internalType": "address payable",
          "name": "_recipient",
          "type": "address"
        },
        {
          "internalType": "uint256",
          "name": "_amount",
          "type": "uint256"
        }
      ],
      "payable": false,
      "stateMutability": "nonpayable",
      "type": "constructor"
    },
    {
      "constant": true,
      "inputs": [],
      "name": "amount",
      "outputs": [
        {
          "internalType": "uint256",
          "name": "",
          "type": "uint256"
        }
      ],
      "payable": false,
      "stateMutability": "view",
      "type": "function"
    },
    {
      "constant": true,
      "inputs": [],
      "name": "lawyer",
      "outputs": [
        {
          "internalType": "address",
          "name": "",
          "type": "address"
        }
      ],
      "payable": false,
      "stateMutability": "view",
      "type": "function"
    },
    {
      "constant": true,
      "inputs": [],
      "name": "payer",
      "outputs": [
        {
          "internalType": "address",
          "name": "",
          "type": "address"
        }
      ],
      "payable": false,
      "stateMutability": "view",
      "type": "function"
    },
    {
      "constant": true,
      "inputs": [],
      "name": "recipient",
      "outputs": [
        {
          "internalType": "address payable",
          "name": "",
          "type": "address"
        }
      ],
      "payable": false,
      "stateMutability": "view",
      "type": "function"
    },
    {
      "constant": true,
      "inputs": [],
      "name": "balance",
      "outputs": [
        {
          "internalType": "uint256",
          "name": "",
          "type": "uint256"
        }
      ],
      "payable": false,
      "stateMutability": "view",
      "type": "function"
    },
    {
      "constant": false,
      "inputs": [],
      "name": "deposit",
      "outputs": [],
      "payable": true,
      "stateMutability": "payable",
      "type": "function"
    },
    {
      "constant": false,
      "inputs": [],
      "name": "release",
      "outputs": [],
      "payable": false,
      "stateMutability": "nonpayable",
      "type": "function"
    }
  ],
  "bytecode": "0x608060405234801561001057600080fd5b506040516106d43803806106d48339818101604052606081101561003357600080fd5b8101908080519060200190929190805190602001909291908051906020019092919050505033600260006101000a81548173ffffffffffffffffffffffffffffffffffffffff021916908373ffffffffffffffffffffffffffffffffffffffff160217905550826000806101000a81548173ffffffffffffffffffffffffffffffffffffffff021916908373ffffffffffffffffffffffffffffffffffffffff16021790555081600160006101000a81548173ffffffffffffffffffffffffffffffffffffffff021916908373ffffffffffffffffffffffffffffffffffffffff160217905550806003819055505050506105a1806101336000396000f3fe6080604052600436106100705760003560e01c806386d1a69f1161004e57806386d1a69f1461017a578063aa8c217c14610191578063b69ef8a8146101bc578063d0e30db0146101e757610070565b8063123119cd146100755780633bfb6e31146100cc57806366d003ac14610123575b600080fd5b34801561008157600080fd5b5061008a6101f1565b604051808273ffffffffffffffffffffffffffffffffffffffff1673ffffffffffffffffffffffffffffffffffffffff16815260200191505060405180910390f35b3480156100d857600080fd5b506100e1610216565b604051808273ffffffffffffffffffffffffffffffffffffffff1673ffffffffffffffffffffffffffffffffffffffff16815260200191505060405180910390f35b34801561012f57600080fd5b5061013861023c565b604051808273ffffffffffffffffffffffffffffffffffffffff1673ffffffffffffffffffffffffffffffffffffffff16815260200191505060405180910390f35b34801561018657600080fd5b5061018f610262565b005b34801561019d57600080fd5b506101a6610410565b6040518082815260200191505060405180910390f35b3480156101c857600080fd5b506101d1610416565b6040518082815260200191505060405180910390f35b6101ef61041e565b005b6000809054906101000a900473ffffffffffffffffffffffffffffffffffffffff1681565b600260009054906101000a900473ffffffffffffffffffffffffffffffffffffffff1681565b600160009054906101000a900473ffffffffffffffffffffffffffffffffffffffff1681565b3373ffffffffffffffffffffffffffffffffffffffff16600260009054906101000a900473ffffffffffffffffffffffffffffffffffffffff1673ffffffffffffffffffffffffffffffffffffffff1614610325576040517f08c379a000000000000000000000000000000000000000000000000000000000815260040180806020018281038252601d8152602001807f4f6e6c79206c61777965722063616e2072656c656173652066756e647300000081525060200191505060405180910390fd5b600354610330610416565b146103a3576040517f08c379a000000000000000000000000000000000000000000000000000000000815260040180806020018281038252601f8152602001807f43616e6e6f742072656c6561736520696e636f6d6c65746520616d6f756e740081525060200191505060405180910390fd5b600160009054906101000a900473ffffffffffffffffffffffffffffffffffffffff1673ffffffffffffffffffffffffffffffffffffffff166108fc6003549081150290604051600060405180830381858888f1935050505015801561040d573d6000803e3d6000fd5b50565b60035481565b600047905090565b3373ffffffffffffffffffffffffffffffffffffffff166000809054906101000a900473ffffffffffffffffffffffffffffffffffffffff1673ffffffffffffffffffffffffffffffffffffffff16146104e0576040517f08c379a000000000000000000000000000000000000000000000000000000000815260040180806020018281038252601c8152602001807f4f6e6c792070617965722063616e206d616b65206465706f736974730000000081525060200191505060405180910390fd5b6003546104eb610416565b1115610542576040517f08c379a00000000000000000000000000000000000000000000000000000000081526004018080602001828103825260288152602001806105456028913960400191505060405180910390fd5b56fe43616e6f74206465706f736974206d6f7265207468616e2073706563696669656420616d6f756e74a265627a7a72315820521d5eb9cf8e7ab18cf8fd92fea4edfe715c180012b68939e9f3e3e0b6275a3964736f6c63430005100032",
  "source": "pragma solidity ^0.5.0;\r\n\r\ncontract Escrow {\r\n    address public payer;\r\n    address payable public recipient;\r\n    address public lawyer;\r\n    uint256 public amount;\r\n\r\n    constructor(address _payer, address payable _recipient, uint256 _amount) public {\r\n        lawyer = msg.sender;\r\n        payer = _payer;\r\n        recipient = _recipient;\r\n        amount = _amount;\r\n    }\r\n    \r\n    function balance() public view returns(uint) {\r\n        return address(this).balance;\r\n    } \r\n    \r\n    function deposit() payable public {\r\n        require(payer == msg.sender, 'Only payer can make deposits');\r\n        require(balance() <= amount, 'Canot deposit more than specified amount');\r\n    }\r\n    \r\n    function release() external {\r\n        require(lawyer == msg.sender, 'Only lawyer can release funds');\r\n        require(balance() == amount, 'Cannot release incomlete amount');\r\n        recipient.transfer(amount);\r\n    }\r\n}\r\n",
  "sourcePath": "C:\\Users\\LENOVO\\Desktop\\THE GRIND\\Blockchain Dev\\gitrepo\\Escrow\\contracts\\Escrow.sol",
  "compiler": {
    "name": "solc",
    "version": "0.5.16+commit.9c3226ce.Emscripten.clang"
  },
  "schemaVersion": "3.1.0",
  "updatedAt": "2020-05-19T11:09:28.546Z",
  "networkType": "ethereum",
  "devdoc": {
    "methods": {}
  },
  "userdoc": {
    "methods": {}
  }
}